{
  "_format": "hh-sol-artifact-1",
  "contractName": "PredictionMarket",
  "sourceName": "contracts/PredictionMarket.sol",
  "abi": [
    {
      "inputs": [
        {
          "internalType": "address",
          "name": "_reputationSystem",
          "type": "address"
        }
      ],
      "stateMutability": "nonpayable",
      "type": "constructor"
    },
    {
      "inputs": [
        {
          "internalType": "address",
          "name": "owner",
          "type": "address"
        }
      ],
      "name": "OwnableInvalidOwner",
      "type": "error"
    },
    {
      "inputs": [
        {
          "internalType": "address",
          "name": "account",
          "type": "address"
        }
      ],
      "name": "OwnableUnauthorizedAccount",
      "type": "error"
    },
    {
      "inputs": [],
      "name": "ReentrancyGuardReentrantCall",
      "type": "error"
    },
    {
      "anonymous": false,
      "inputs": [
        {
          "indexed": true,
          "internalType": "uint256",
          "name": "betId",
          "type": "uint256"
        },
        {
          "indexed": true,
          "internalType": "uint256",
          "name": "marketId",
          "type": "uint256"
        },
        {
          "indexed": true,
          "internalType": "address",
          "name": "bettor",
          "type": "address"
        },
        {
          "indexed": false,
          "internalType": "uint256",
          "name": "amount",
          "type": "uint256"
        }
      ],
      "name": "BetPlaced",
      "type": "event"
    },
    {
      "anonymous": false,
      "inputs": [
        {
          "indexed": true,
          "internalType": "address",
          "name": "token",
          "type": "address"
        },
        {
          "indexed": false,
          "internalType": "uint256",
          "name": "amount",
          "type": "uint256"
        },
        {
          "indexed": true,
          "internalType": "address",
          "name": "to",
          "type": "address"
        }
      ],
      "name": "FeesWithdrawn",
      "type": "event"
    },
    {
      "anonymous": false,
      "inputs": [
        {
          "indexed": true,
          "internalType": "uint256",
          "name": "marketId",
          "type": "uint256"
        },
        {
          "indexed": true,
          "internalType": "address",
          "name": "creator",
          "type": "address"
        },
        {
          "indexed": false,
          "internalType": "string",
          "name": "question",
          "type": "string"
        }
      ],
      "name": "MarketCreated",
      "type": "event"
    },
    {
      "anonymous": false,
      "inputs": [
        {
          "indexed": true,
          "internalType": "uint256",
          "name": "marketId",
          "type": "uint256"
        },
        {
          "indexed": false,
          "internalType": "uint256",
          "name": "winningOutcome",
          "type": "uint256"
        }
      ],
      "name": "MarketResolved",
      "type": "event"
    },
    {
      "anonymous": false,
      "inputs": [
        {
          "indexed": true,
          "internalType": "address",
          "name": "previousOwner",
          "type": "address"
        },
        {
          "indexed": true,
          "internalType": "address",
          "name": "newOwner",
          "type": "address"
        }
      ],
      "name": "OwnershipTransferred",
      "type": "event"
    },
    {
      "anonymous": false,
      "inputs": [
        {
          "indexed": true,
          "internalType": "uint256",
          "name": "betId",
          "type": "uint256"
        },
        {
          "indexed": false,
          "internalType": "uint256",
          "name": "price",
          "type": "uint256"
        }
      ],
      "name": "PositionListed",
      "type": "event"
    },
    {
      "anonymous": false,
      "inputs": [
        {
          "indexed": true,
          "internalType": "uint256",
          "name": "betId",
          "type": "uint256"
        },
        {
          "indexed": false,
          "internalType": "address",
          "name": "seller",
          "type": "address"
        },
        {
          "indexed": false,
          "internalType": "address",
          "name": "buyer",
          "type": "address"
        },
        {
          "indexed": false,
          "internalType": "uint256",
          "name": "price",
          "type": "uint256"
        }
      ],
      "name": "PositionSold",
      "type": "event"
    },
    {
      "anonymous": false,
      "inputs": [
        {
          "indexed": true,
          "internalType": "uint256",
          "name": "betId",
          "type": "uint256"
        },
        {
          "indexed": true,
          "internalType": "address",
          "name": "claimer",
          "type": "address"
        },
        {
          "indexed": false,
          "internalType": "uint256",
          "name": "amount",
          "type": "uint256"
        }
      ],
      "name": "WinningsClaimed",
      "type": "event"
    },
    {
      "inputs": [],
      "name": "FEE_DENOMINATOR",
      "outputs": [
        {
          "internalType": "uint256",
          "name": "",
          "type": "uint256"
        }
      ],
      "stateMutability": "view",
      "type": "function"
    },
    {
      "inputs": [],
      "name": "PLATFORM_FEE",
      "outputs": [
        {
          "internalType": "uint256",
          "name": "",
          "type": "uint256"
        }
      ],
      "stateMutability": "view",
      "type": "function"
    },
    {
      "inputs": [],
      "name": "betCount",
      "outputs": [
        {
          "internalType": "uint256",
          "name": "",
          "type": "uint256"
        }
      ],
      "stateMutability": "view",
      "type": "function"
    },
    {
      "inputs": [
        {
          "internalType": "uint256",
          "name": "",
          "type": "uint256"
        }
      ],
      "name": "bets",
      "outputs": [
        {
          "internalType": "uint256",
          "name": "id",
          "type": "uint256"
        },
        {
          "internalType": "address",
          "name": "bettor",
          "type": "address"
        },
        {
          "internalType": "uint256",
          "name": "marketId",
          "type": "uint256"
        },
        {
          "internalType": "uint256",
          "name": "outcomeIndex",
          "type": "uint256"
        },
        {
          "internalType": "uint256",
          "name": "amount",
          "type": "uint256"
        },
        {
          "internalType": "uint256",
          "name": "shares",
          "type": "uint256"
        },
        {
          "internalType": "uint256",
          "name": "timestamp",
          "type": "uint256"
        },
        {
          "internalType": "bool",
          "name": "claimed",
          "type": "bool"
        }
      ],
      "stateMutability": "view",
      "type": "function"
    },
    {
      "inputs": [
        {
          "internalType": "uint256",
          "name": "_betId",
          "type": "uint256"
        }
      ],
      "name": "buyPosition",
      "outputs": [],
      "stateMutability": "payable",
      "type": "function"
    },
    {
      "inputs": [
        {
          "internalType": "uint256",
          "name": "_marketId",
          "type": "uint256"
        },
        {
          "internalType": "uint256",
          "name": "_outcomeIndex",
          "type": "uint256"
        },
        {
          "internalType": "uint256",
          "name": "_amount",
          "type": "uint256"
        }
      ],
      "name": "calculateShares",
      "outputs": [
        {
          "internalType": "uint256",
          "name": "",
          "type": "uint256"
        }
      ],
      "stateMutability": "view",
      "type": "function"
    },
    {
      "inputs": [
        {
          "internalType": "uint256",
          "name": "_betId",
          "type": "uint256"
        }
      ],
      "name": "cancelListing",
      "outputs": [],
      "stateMutability": "nonpayable",
      "type": "function"
    },
    {
      "inputs": [
        {
          "internalType": "uint256",
          "name": "_betId",
          "type": "uint256"
        }
      ],
      "name": "claimWinnings",
      "outputs": [],
      "stateMutability": "nonpayable",
      "type": "function"
    },
    {
      "inputs": [
        {
          "internalType": "address",
          "name": "",
          "type": "address"
        }
      ],
      "name": "collectedFees",
      "outputs": [
        {
          "internalType": "uint256",
          "name": "",
          "type": "uint256"
        }
      ],
      "stateMutability": "view",
      "type": "function"
    },
    {
      "inputs": [
        {
          "internalType": "string",
          "name": "_question",
          "type": "string"
        },
        {
          "internalType": "string",
          "name": "_description",
          "type": "string"
        },
        {
          "internalType": "string[]",
          "name": "_outcomes",
          "type": "string[]"
        },
        {
          "internalType": "uint256",
          "name": "_resolutionTime",
          "type": "uint256"
        },
        {
          "internalType": "address",
          "name": "_arbitrator",
          "type": "address"
        },
        {
          "internalType": "address",
          "name": "_tokenAddress",
          "type": "address"
        }
      ],
      "name": "createMarket",
      "outputs": [
        {
          "internalType": "uint256",
          "name": "",
          "type": "uint256"
        }
      ],
      "stateMutability": "nonpayable",
      "type": "function"
    },
    {
      "inputs": [
        {
          "internalType": "address",
          "name": "_tokenAddress",
          "type": "address"
        }
      ],
      "name": "getAvailableFees",
      "outputs": [
        {
          "internalType": "uint256",
          "name": "",
          "type": "uint256"
        }
      ],
      "stateMutability": "view",
      "type": "function"
    },
    {
      "inputs": [
        {
          "internalType": "uint256",
          "name": "_marketId",
          "type": "uint256"
        }
      ],
      "name": "getMarket",
      "outputs": [
        {
          "internalType": "uint256",
          "name": "id",
          "type": "uint256"
        },
        {
          "internalType": "string",
          "name": "question",
          "type": "string"
        },
        {
          "internalType": "string",
          "name": "description",
          "type": "string"
        },
        {
          "internalType": "string[]",
          "name": "outcomes",
          "type": "string[]"
        },
        {
          "internalType": "uint256",
          "name": "resolutionTime",
          "type": "uint256"
        },
        {
          "internalType": "address",
          "name": "arbitrator",
          "type": "address"
        },
        {
          "internalType": "address",
          "name": "creator",
          "type": "address"
        },
        {
          "internalType": "enum PredictionMarket.MarketStatus",
          "name": "status",
          "type": "uint8"
        },
        {
          "internalType": "uint256",
          "name": "totalVolume",
          "type": "uint256"
        },
        {
          "internalType": "address",
          "name": "tokenAddress",
          "type": "address"
        }
      ],
      "stateMutability": "view",
      "type": "function"
    },
    {
      "inputs": [
        {
          "internalType": "uint256",
          "name": "_marketId",
          "type": "uint256"
        }
      ],
      "name": "getMarketBets",
      "outputs": [
        {
          "internalType": "uint256[]",
          "name": "",
          "type": "uint256[]"
        }
      ],
      "stateMutability": "view",
      "type": "function"
    },
    {
      "inputs": [
        {
          "internalType": "uint256",
          "name": "_marketId",
          "type": "uint256"
        },
        {
          "internalType": "uint256",
          "name": "_outcomeIndex",
          "type": "uint256"
        }
      ],
      "name": "getPrice",
      "outputs": [
        {
          "internalType": "uint256",
          "name": "",
          "type": "uint256"
        }
      ],
      "stateMutability": "view",
      "type": "function"
    },
    {
      "inputs": [
        {
          "internalType": "uint256",
          "name": "_marketId",
          "type": "uint256"
        }
      ],
      "name": "getTotalPool",
      "outputs": [
        {
          "internalType": "uint256",
          "name": "",
          "type": "uint256"
        }
      ],
      "stateMutability": "view",
      "type": "function"
    },
    {
      "inputs": [
        {
          "internalType": "address",
          "name": "_user",
          "type": "address"
        }
      ],
      "name": "getUserBets",
      "outputs": [
        {
          "internalType": "uint256[]",
          "name": "",
          "type": "uint256[]"
        }
      ],
      "stateMutability": "view",
      "type": "function"
    },
    {
      "inputs": [
        {
          "internalType": "uint256",
          "name": "_betId",
          "type": "uint256"
        },
        {
          "internalType": "uint256",
          "name": "_price",
          "type": "uint256"
        }
      ],
      "name": "listPosition",
      "outputs": [],
      "stateMutability": "nonpayable",
      "type": "function"
    },
    {
      "inputs": [
        {
          "internalType": "uint256",
          "name": "",
          "type": "uint256"
        },
        {
          "internalType": "uint256",
          "name": "",
          "type": "uint256"
        }
      ],
      "name": "marketBets",
      "outputs": [
        {
          "internalType": "uint256",
          "name": "",
          "type": "uint256"
        }
      ],
      "stateMutability": "view",
      "type": "function"
    },
    {
      "inputs": [],
      "name": "marketCount",
      "outputs": [
        {
          "internalType": "uint256",
          "name": "",
          "type": "uint256"
        }
      ],
      "stateMutability": "view",
      "type": "function"
    },
    {
      "inputs": [
        {
          "internalType": "uint256",
          "name": "",
          "type": "uint256"
        }
      ],
      "name": "markets",
      "outputs": [
        {
          "internalType": "uint256",
          "name": "id",
          "type": "uint256"
        },
        {
          "internalType": "string",
          "name": "question",
          "type": "string"
        },
        {
          "internalType": "string",
          "name": "description",
          "type": "string"
        },
        {
          "internalType": "uint256",
          "name": "resolutionTime",
          "type": "uint256"
        },
        {
          "internalType": "address",
          "name": "arbitrator",
          "type": "address"
        },
        {
          "internalType": "address",
          "name": "creator",
          "type": "address"
        },
        {
          "internalType": "uint256",
          "name": "createdAt",
          "type": "uint256"
        },
        {
          "internalType": "enum PredictionMarket.MarketStatus",
          "name": "status",
          "type": "uint8"
        },
        {
          "internalType": "uint256",
          "name": "winningOutcome",
          "type": "uint256"
        },
        {
          "internalType": "address",
          "name": "tokenAddress",
          "type": "address"
        },
        {
          "internalType": "uint256",
          "name": "totalVolume",
          "type": "uint256"
        }
      ],
      "stateMutability": "view",
      "type": "function"
    },
    {
      "inputs": [
        {
          "internalType": "uint256",
          "name": "",
          "type": "uint256"
        },
        {
          "internalType": "uint256",
          "name": "",
          "type": "uint256"
        }
      ],
      "name": "outcomePools",
      "outputs": [
        {
          "internalType": "uint256",
          "name": "",
          "type": "uint256"
        }
      ],
      "stateMutability": "view",
      "type": "function"
    },
    {
      "inputs": [
        {
          "internalType": "uint256",
          "name": "",
          "type": "uint256"
        },
        {
          "internalType": "uint256",
          "name": "",
          "type": "uint256"
        }
      ],
      "name": "outcomeShares",
      "outputs": [
        {
          "internalType": "uint256",
          "name": "",
          "type": "uint256"
        }
      ],
      "stateMutability": "view",
      "type": "function"
    },
    {
      "inputs": [],
      "name": "owner",
      "outputs": [
        {
          "internalType": "address",
          "name": "",
          "type": "address"
        }
      ],
      "stateMutability": "view",
      "type": "function"
    },
    {
      "inputs": [
        {
          "internalType": "uint256",
          "name": "_marketId",
          "type": "uint256"
        },
        {
          "internalType": "uint256",
          "name": "_outcomeIndex",
          "type": "uint256"
        },
        {
          "internalType": "uint256",
          "name": "_amount",
          "type": "uint256"
        },
        {
          "internalType": "uint256",
          "name": "_minShares",
          "type": "uint256"
        }
      ],
      "name": "placeBet",
      "outputs": [
        {
          "internalType": "uint256",
          "name": "",
          "type": "uint256"
        }
      ],
      "stateMutability": "payable",
      "type": "function"
    },
    {
      "inputs": [
        {
          "internalType": "uint256",
          "name": "",
          "type": "uint256"
        }
      ],
      "name": "positionPrices",
      "outputs": [
        {
          "internalType": "uint256",
          "name": "",
          "type": "uint256"
        }
      ],
      "stateMutability": "view",
      "type": "function"
    },
    {
      "inputs": [
        {
          "internalType": "uint256",
          "name": "",
          "type": "uint256"
        }
      ],
      "name": "positionsForSale",
      "outputs": [
        {
          "internalType": "bool",
          "name": "",
          "type": "bool"
        }
      ],
      "stateMutability": "view",
      "type": "function"
    },
    {
      "inputs": [],
      "name": "renounceOwnership",
      "outputs": [],
      "stateMutability": "nonpayable",
      "type": "function"
    },
    {
      "inputs": [],
      "name": "reputationSystem",
      "outputs": [
        {
          "internalType": "contract IReputationSystem",
          "name": "",
          "type": "address"
        }
      ],
      "stateMutability": "view",
      "type": "function"
    },
    {
      "inputs": [
        {
          "internalType": "uint256",
          "name": "_marketId",
          "type": "uint256"
        },
        {
          "internalType": "uint256",
          "name": "_winningOutcome",
          "type": "uint256"
        }
      ],
      "name": "resolveMarket",
      "outputs": [],
      "stateMutability": "nonpayable",
      "type": "function"
    },
    {
      "inputs": [
        {
          "internalType": "address",
          "name": "newOwner",
          "type": "address"
        }
      ],
      "name": "transferOwnership",
      "outputs": [],
      "stateMutability": "nonpayable",
      "type": "function"
    },
    {
      "inputs": [
        {
          "internalType": "address",
          "name": "",
          "type": "address"
        },
        {
          "internalType": "uint256",
          "name": "",
          "type": "uint256"
        }
      ],
      "name": "userBets",
      "outputs": [
        {
          "internalType": "uint256",
          "name": "",
          "type": "uint256"
        }
      ],
      "stateMutability": "view",
      "type": "function"
    },
    {
      "inputs": [
        {
          "internalType": "address",
          "name": "_tokenAddress",
          "type": "address"
        }
      ],
      "name": "withdrawFees",
      "outputs": [],
      "stateMutability": "nonpayable",
      "type": "function"
    }
  ],
  "bytecode": "0x608060405234801561001057600080fd5b50604051614e6e380380614e6e8339818101604052810190610032919061027d565b33600161005161004661012160201b60201c565b61014c60201b60201c565b60000181905550600073ffffffffffffffffffffffffffffffffffffffff168173ffffffffffffffffffffffffffffffffffffffff16036100ca5760006040517f1e4fbdf70000000000000000000000000000000000000000000000000000000081526004016100c191906102b9565b60405180910390fd5b6100d98161015660201b60201c565b5080600360006101000a81548173ffffffffffffffffffffffffffffffffffffffff021916908373ffffffffffffffffffffffffffffffffffffffff160217905550506102d4565b60007f9b779b17422d0df92223018b32b4d1fa46e071723d6817e2486d003becc55f0060001b905090565b6000819050919050565b60008060009054906101000a900473ffffffffffffffffffffffffffffffffffffffff169050816000806101000a81548173ffffffffffffffffffffffffffffffffffffffff021916908373ffffffffffffffffffffffffffffffffffffffff1602179055508173ffffffffffffffffffffffffffffffffffffffff168173ffffffffffffffffffffffffffffffffffffffff167f8be0079c531659141344cd1fd0a4f28419497f9722a3daafe3b4186f6b6457e060405160405180910390a35050565b600080fd5b600073ffffffffffffffffffffffffffffffffffffffff82169050919050565b600061024a8261021f565b9050919050565b61025a8161023f565b811461026557600080fd5b50565b60008151905061027781610251565b92915050565b6000602082840312156102935761029261021a565b5b60006102a184828501610268565b91505092915050565b6102b38161023f565b82525050565b60006020820190506102ce60008301846102aa565b92915050565b614b8b806102e36000396000f3fe6080604052600436106101e25760003560e01c8063715018a611610102578063cf09449711610095578063eea04d0911610064578063eea04d0914610796578063f2e55021146107d3578063f2fde38b14610810578063fde6adb114610839576101e2565b8063cf094497146106cf578063d73792a9146106fa578063eb44fdd314610725578063ec9790821461076b576101e2565b80639395c51d116100d15780639395c51d146105e5578063a501f0a414610622578063b1283e771461065f578063c3df2be0146106a6576101e2565b8063715018a6146105295780638068aa681461054057806383bd24671461057d5780638da5cb5b146105ba576101e2565b806334fbc9a11161017a5780635cf4ee91116101495780635cf4ee911461046f57806360557333146104ac5780636587eda1146104d5578063677bd9ff14610500576101e2565b806334fbc9a11461038d5780633a35b9bd146103b85780633adadc0a146103f55780635473543c14610432576101e2565b80631cead9a7116101b65780631cead9a7146102a657806322af00fa146102e35780632d56657d14610327578063305a67a814610364576101e2565b80627a94c1146101e75780630cc90fe1146102245780630fd9eab414610261578063164e68de1461027d575b600080fd5b3480156101f357600080fd5b5061020e60048036038101906102099190613173565b610869565b60405161021b91906131b9565b60405180910390f35b34801561023057600080fd5b5061024b60048036038101906102469190613200565b6108b2565b60405161025891906131b9565b60405180910390f35b61027b60048036038101906102769190613200565b6108ca565b005b34801561028957600080fd5b506102a4600480360381019061029f9190613173565b610dbc565b005b3480156102b257600080fd5b506102cd60048036038101906102c89190613173565b611084565b6040516102da91906131b9565b60405180910390f35b3480156102ef57600080fd5b5061030a60048036038101906103059190613200565b61109c565b60405161031e989796959493929190613257565b60405180910390f35b34801561033357600080fd5b5061034e60048036038101906103499190613173565b611111565b60405161035b9190613393565b60405180910390f35b34801561037057600080fd5b5061038b60048036038101906103869190613200565b6111a8565b005b34801561039957600080fd5b506103a2611333565b6040516103af91906131b9565b60405180910390f35b3480156103c457600080fd5b506103df60048036038101906103da9190613200565b611338565b6040516103ec91906131b9565b60405180910390f35b34801561040157600080fd5b5061041c60048036038101906104179190613200565b6113ad565b6040516104299190613393565b60405180910390f35b34801561043e57600080fd5b5061045960048036038101906104549190613200565b611418565b60405161046691906133b5565b60405180910390f35b34801561047b57600080fd5b50610496600480360381019061049191906133d0565b611438565b6040516104a391906131b9565b60405180910390f35b3480156104b857600080fd5b506104d360048036038101906104ce91906133d0565b6114a5565b005b3480156104e157600080fd5b506104ea6116c9565b6040516104f7919061346f565b60405180910390f35b34801561050c57600080fd5b5061052760048036038101906105229190613200565b6116ef565b005b34801561053557600080fd5b5061053e611d0b565b005b34801561054c57600080fd5b506105676004803603810190610562919061348a565b611d1f565b60405161057491906131b9565b60405180910390f35b34801561058957600080fd5b506105a4600480360381019061059f91906133d0565b611d50565b6040516105b191906131b9565b60405180910390f35b3480156105c657600080fd5b506105cf611d75565b6040516105dc91906134ca565b60405180910390f35b3480156105f157600080fd5b5061060c60048036038101906106079190613711565b611d9e565b60405161061991906131b9565b60405180910390f35b34801561062e57600080fd5b50610649600480360381019061064491906133d0565b612078565b60405161065691906131b9565b60405180910390f35b34801561066b57600080fd5b5061068660048036038101906106819190613200565b61209d565b60405161069d9b9a999897969594939291906138e8565b60405180910390f35b3480156106b257600080fd5b506106cd60048036038101906106c891906133d0565b612274565b005b3480156106db57600080fd5b506106e461247e565b6040516106f191906131b9565b60405180910390f35b34801561070657600080fd5b5061070f612484565b60405161071c91906131b9565b60405180910390f35b34801561073157600080fd5b5061074c60048036038101906107479190613200565b612489565b6040516107629a99989796959493929190613aad565b60405180910390f35b34801561077757600080fd5b50610780612759565b60405161078d91906131b9565b60405180910390f35b3480156107a257600080fd5b506107bd60048036038101906107b89190613b5e565b61275f565b6040516107ca91906131b9565b60405180910390f35b3480156107df57600080fd5b506107fa60048036038101906107f591906133d0565b6127fe565b60405161080791906131b9565b60405180910390f35b34801561081c57600080fd5b5061083760048036038101906108329190613173565b61282f565b005b610853600480360381019061084e9190613bb1565b6128b5565b60405161086091906131b9565b60405180910390f35b6000600c60008373ffffffffffffffffffffffffffffffffffffffff1673ffffffffffffffffffffffffffffffffffffffff168152602001908152602001600020549050919050565b600b6020528060005260406000206000915090505481565b6108d2612e02565b600a600082815260200190815260200160002060009054906101000a900460ff16610932576040517f08c379a000000000000000000000000000000000000000000000000000000000815260040161092990613c64565b60405180910390fd5b600060076000838152602001908152602001600020905060006004600083600201548152602001908152602001600020905060008260010160009054906101000a900473ffffffffffffffffffffffffffffffffffffffff1690506000600b6000868152602001908152602001600020549050338460010160006101000a81548173ffffffffffffffffffffffffffffffffffffffff021916908373ffffffffffffffffffffffffffffffffffffffff1602179055506000600a600087815260200190815260200160002060006101000a81548160ff021916908315150217905550600860003373ffffffffffffffffffffffffffffffffffffffff1673ffffffffffffffffffffffffffffffffffffffff168152602001908152602001600020859080600181540180825580915050600190039060005260206000200160009091909190915055600073ffffffffffffffffffffffffffffffffffffffff1683600a0160009054906101000a900473ffffffffffffffffffffffffffffffffffffffff1673ffffffffffffffffffffffffffffffffffffffff1603610c885780341015610b15576040517f08c379a0000000000000000000000000000000000000000000000000000000008152600401610b0c90613cd0565b60405180910390fd5b60008273ffffffffffffffffffffffffffffffffffffffff1682604051610b3b90613d21565b60006040518083038185875af1925050503d8060008114610b78576040519150601f19603f3d011682016040523d82523d6000602084013e610b7d565b606091505b5050905080610bc1576040517f08c379a0000000000000000000000000000000000000000000000000000000008152600401610bb890613d82565b60405180910390fd5b81341115610c825760003373ffffffffffffffffffffffffffffffffffffffff168334610bee9190613dd1565b604051610bfa90613d21565b60006040518083038185875af1925050503d8060008114610c37576040519150601f19603f3d011682016040523d82523d6000602084013e610c3c565b606091505b5050905080610c80576040517f08c379a0000000000000000000000000000000000000000000000000000000008152600401610c7790613e51565b60405180910390fd5b505b50610d71565b60003414610ccb576040517f08c379a0000000000000000000000000000000000000000000000000000000008152600401610cc290613ebd565b60405180910390fd5b82600a0160009054906101000a900473ffffffffffffffffffffffffffffffffffffffff1673ffffffffffffffffffffffffffffffffffffffff166323b872dd3384846040518463ffffffff1660e01b8152600401610d2c93929190613edd565b6020604051808303816000875af1158015610d4b573d6000803e3d6000fd5b505050506040513d601f19601f82011682018060405250810190610d6f9190613f40565b505b847ff2dde94af6f8c6ca7199daa8b494c3c6cf39d91b218051b16f548b2bc45d3ae5833384604051610da593929190613edd565b60405180910390a250505050610db9612e25565b50565b610dc4612e40565b610dcc612e02565b6000600c60008373ffffffffffffffffffffffffffffffffffffffff1673ffffffffffffffffffffffffffffffffffffffff16815260200190815260200160002054905060008111610e53576040517f08c379a0000000000000000000000000000000000000000000000000000000008152600401610e4a90613fb9565b60405180910390fd5b6000600c60008473ffffffffffffffffffffffffffffffffffffffff1673ffffffffffffffffffffffffffffffffffffffff16815260200190815260200160002081905550600073ffffffffffffffffffffffffffffffffffffffff168273ffffffffffffffffffffffffffffffffffffffff1603610f85576000610ed6611d75565b73ffffffffffffffffffffffffffffffffffffffff1682604051610ef990613d21565b60006040518083038185875af1925050503d8060008114610f36576040519150601f19603f3d011682016040523d82523d6000602084013e610f3b565b606091505b5050905080610f7f576040517f08c379a0000000000000000000000000000000000000000000000000000000008152600401610f7690613d82565b60405180910390fd5b5061100c565b8173ffffffffffffffffffffffffffffffffffffffff1663a9059cbb610fa9611d75565b836040518363ffffffff1660e01b8152600401610fc7929190613fd9565b6020604051808303816000875af1158015610fe6573d6000803e3d6000fd5b505050506040513d601f19601f8201168201806040525081019061100a9190613f40565b505b611014611d75565b73ffffffffffffffffffffffffffffffffffffffff168273ffffffffffffffffffffffffffffffffffffffff167f87044da2612407bc001bb0985725dcc651a0dc71eaabfd1d7e8617ca85a8c19c8360405161107091906131b9565b60405180910390a350611081612e25565b50565b600c6020528060005260406000206000915090505481565b60076020528060005260406000206000915090508060000154908060010160009054906101000a900473ffffffffffffffffffffffffffffffffffffffff16908060020154908060030154908060040154908060050154908060060154908060070160009054906101000a900460ff16905088565b6060600860008373ffffffffffffffffffffffffffffffffffffffff1673ffffffffffffffffffffffffffffffffffffffff16815260200190815260200160002080548060200260200160405190810160405280929190818152602001828054801561119c57602002820191906000526020600020905b815481526020019060010190808311611188575b50505050509050919050565b60006007600083815260200190815260200160002090508060010160009054906101000a900473ffffffffffffffffffffffffffffffffffffffff1673ffffffffffffffffffffffffffffffffffffffff163373ffffffffffffffffffffffffffffffffffffffff1614611251576040517f08c379a00000000000000000000000000000000000000000000000000000000081526004016112489061404e565b60405180910390fd5b600a600083815260200190815260200160002060009054906101000a900460ff166112b1576040517f08c379a00000000000000000000000000000000000000000000000000000000081526004016112a8906140ba565b60405180910390fd5b6000600a600084815260200190815260200160002060006101000a81548160ff0219169083151502179055506000600b600084815260200190815260200160002081905550817ff4a710dfd45490bc94ca01a601a1bfe739a98325282d5b7cbad3e7772ea87c2960006040516113279190614115565b60405180910390a25050565b600281565b6000806004600084815260200190815260200160002090506000805b82600301805490508110156113a25760056000868152602001908152602001600020600082815260200190815260200160002054826113939190614130565b91508080600101915050611354565b508092505050919050565b60606009600083815260200190815260200160002080548060200260200160405190810160405280929190818152602001828054801561140c57602002820191906000526020600020905b8154815260200190600101908083116113f8575b50505050509050919050565b600a6020528060005260406000206000915054906101000a900460ff1681565b600080600560008581526020019081526020016000206000848152602001908152602001600020549050600061146d85611338565b9050600081036114825760329250505061149f565b806064836114909190614164565b61149a91906141d5565b925050505b92915050565b60006004600084815260200190815260200160002090508060050160009054906101000a900473ffffffffffffffffffffffffffffffffffffffff1673ffffffffffffffffffffffffffffffffffffffff163373ffffffffffffffffffffffffffffffffffffffff161461154e576040517f08c379a000000000000000000000000000000000000000000000000000000000815260040161154590614252565b60405180910390fd5b6000600381111561156257611561613871565b5b8160080160009054906101000a900460ff16600381111561158657611585613871565b5b146115c6576040517f08c379a00000000000000000000000000000000000000000000000000000000081526004016115bd906142be565b60405180910390fd5b806004015442101561160d576040517f08c379a00000000000000000000000000000000000000000000000000000000081526004016116049061432a565b60405180910390fd5b80600301805490508210611656576040517f08c379a000000000000000000000000000000000000000000000000000000000815260040161164d90614396565b60405180910390fd5b60028160080160006101000a81548160ff0219169083600381111561167e5761167d613871565b5b0217905550818160090181905550827f6dfc24f0f2fb42e49fb4fa3ffa8abb148cab908a1fb8335b3f128a08b2594af1836040516116bc91906131b9565b60405180910390a2505050565b600360009054906101000a900473ffffffffffffffffffffffffffffffffffffffff1681565b6116f7612e02565b60006007600083815260200190815260200160002090506000600460008360020154815260200190815260200160002090508160010160009054906101000a900473ffffffffffffffffffffffffffffffffffffffff1673ffffffffffffffffffffffffffffffffffffffff163373ffffffffffffffffffffffffffffffffffffffff16146117bb576040517f08c379a00000000000000000000000000000000000000000000000000000000081526004016117b29061404e565b60405180910390fd5b8160070160009054906101000a900460ff161561180d576040517f08c379a000000000000000000000000000000000000000000000000000000000815260040161180490614402565b60405180910390fd5b6002600381111561182157611820613871565b5b8160080160009054906101000a900460ff16600381111561184557611844613871565b5b14611885576040517f08c379a000000000000000000000000000000000000000000000000000000000815260040161187c9061446e565b60405180910390fd5b8060090154826003015403611c505760018260070160006101000a81548160ff0219169083151502179055506000600660008460020154815260200190815260200160002060008360090154815260200190815260200160002054905060006118f18460020154611338565b90506000828286600501546119069190614164565b61191091906141d5565b9050600060646002836119239190614164565b61192d91906141d5565b90506000818361193d9190613dd1565b905081600c600088600a0160009054906101000a900473ffffffffffffffffffffffffffffffffffffffff1673ffffffffffffffffffffffffffffffffffffffff1673ffffffffffffffffffffffffffffffffffffffff16815260200190815260200160002060008282546119b29190614130565b92505081905550600360009054906101000a900473ffffffffffffffffffffffffffffffffffffffff1673ffffffffffffffffffffffffffffffffffffffff1663e2c13e323360016040518363ffffffff1660e01b8152600401611a1792919061448e565b600060405180830381600087803b158015611a3157600080fd5b505af1158015611a45573d6000803e3d6000fd5b50505050600073ffffffffffffffffffffffffffffffffffffffff1686600a0160009054906101000a900473ffffffffffffffffffffffffffffffffffffffff1673ffffffffffffffffffffffffffffffffffffffff1603611b535760003373ffffffffffffffffffffffffffffffffffffffff1682604051611ac790613d21565b60006040518083038185875af1925050503d8060008114611b04576040519150601f19603f3d011682016040523d82523d6000602084013e611b09565b606091505b5050905080611b4d576040517f08c379a0000000000000000000000000000000000000000000000000000000008152600401611b4490613d82565b60405180910390fd5b50611bf7565b85600a0160009054906101000a900473ffffffffffffffffffffffffffffffffffffffff1673ffffffffffffffffffffffffffffffffffffffff1663a9059cbb33836040518363ffffffff1660e01b8152600401611bb2929190613fd9565b6020604051808303816000875af1158015611bd1573d6000803e3d6000fd5b505050506040513d601f19601f82011682018060405250810190611bf59190613f40565b505b3373ffffffffffffffffffffffffffffffffffffffff16887f5380cf6fe903b40c6d5a9e0dfbca2f3a423f0a21520b4d5947ed5169bdba946d83604051611c3e91906131b9565b60405180910390a35050505050611cfe565b60018260070160006101000a81548160ff021916908315150217905550600360009054906101000a900473ffffffffffffffffffffffffffffffffffffffff1673ffffffffffffffffffffffffffffffffffffffff1663e2c13e323360006040518363ffffffff1660e01b8152600401611ccb92919061448e565b600060405180830381600087803b158015611ce557600080fd5b505af1158015611cf9573d6000803e3d6000fd5b505050505b5050611d08612e25565b50565b611d13612e40565b611d1d6000612ec7565b565b60086020528160005260406000208181548110611d3b57600080fd5b90600052602060002001600091509150505481565b6005602052816000526040600020602052806000526040600020600091509150505481565b60008060009054906101000a900473ffffffffffffffffffffffffffffffffffffffff16905090565b6000600285511015611de5576040517f08c379a0000000000000000000000000000000000000000000000000000000008152600401611ddc90614503565b60405180910390fd5b428411611e27576040517f08c379a0000000000000000000000000000000000000000000000000000000008152600401611e1e9061456f565b60405180910390fd5b600073ffffffffffffffffffffffffffffffffffffffff168373ffffffffffffffffffffffffffffffffffffffff1603611e96576040517f08c379a0000000000000000000000000000000000000000000000000000000008152600401611e8d906145db565b60405180910390fd5b60016000815480929190611ea9906145fb565b919050555060006004600060015481526020019081526020016000209050600154816000018190555087816001019081611ee39190614845565b5086816002019081611ef59190614845565b5085816003019080519060200190611f0e929190613027565b50848160040181905550838160050160006101000a81548173ffffffffffffffffffffffffffffffffffffffff021916908373ffffffffffffffffffffffffffffffffffffffff160217905550338160060160006101000a81548173ffffffffffffffffffffffffffffffffffffffff021916908373ffffffffffffffffffffffffffffffffffffffff16021790555042816007018190555060008160080160006101000a81548160ff02191690836003811115611fcf57611fce613871565b5b02179055508281600a0160006101000a81548173ffffffffffffffffffffffffffffffffffffffff021916908373ffffffffffffffffffffffffffffffffffffffff1602179055503373ffffffffffffffffffffffffffffffffffffffff166001547fb143feb0c79e12e29a00674ccaf4e7e613c6fbc3b56b99a0e353faee3c0b8f788a6040516120609190614917565b60405180910390a36001549150509695505050505050565b6006602052816000526040600020602052806000526040600020600091509150505481565b60046020528060005260406000206000915090508060000154908060010180546120c690614672565b80601f01602080910402602001604051908101604052809291908181526020018280546120f290614672565b801561213f5780601f106121145761010080835404028352916020019161213f565b820191906000526020600020905b81548152906001019060200180831161212257829003601f168201915b50505050509080600201805461215490614672565b80601f016020809104026020016040519081016040528092919081815260200182805461218090614672565b80156121cd5780601f106121a2576101008083540402835291602001916121cd565b820191906000526020600020905b8154815290600101906020018083116121b057829003601f168201915b5050505050908060040154908060050160009054906101000a900473ffffffffffffffffffffffffffffffffffffffff16908060060160009054906101000a900473ffffffffffffffffffffffffffffffffffffffff16908060070154908060080160009054906101000a900460ff169080600901549080600a0160009054906101000a900473ffffffffffffffffffffffffffffffffffffffff169080600b015490508b565b60006007600084815260200190815260200160002090508060010160009054906101000a900473ffffffffffffffffffffffffffffffffffffffff1673ffffffffffffffffffffffffffffffffffffffff163373ffffffffffffffffffffffffffffffffffffffff161461231d576040517f08c379a00000000000000000000000000000000000000000000000000000000081526004016123149061404e565b60405180910390fd5b8060070160009054906101000a900460ff161561236f576040517f08c379a000000000000000000000000000000000000000000000000000000000815260040161236690614985565b60405180910390fd5b6000600381111561238357612382613871565b5b600460008360020154815260200190815260200160002060080160009054906101000a900460ff1660038111156123bd576123bc613871565b5b146123fd576040517f08c379a00000000000000000000000000000000000000000000000000000000081526004016123f4906142be565b60405180910390fd5b6001600a600085815260200190815260200160002060006101000a81548160ff02191690831515021790555081600b600085815260200190815260200160002081905550827ff4a710dfd45490bc94ca01a601a1bfe739a98325282d5b7cbad3e7772ea87c298360405161247191906131b9565b60405180910390a2505050565b60025481565b606481565b600060608060606000806000806000806000600460008d81526020019081526020016000209050806000015481600101826002018360030184600401548560050160009054906101000a900473ffffffffffffffffffffffffffffffffffffffff168660060160009054906101000a900473ffffffffffffffffffffffffffffffffffffffff168760080160009054906101000a900460ff1688600b015489600a0160009054906101000a900473ffffffffffffffffffffffffffffffffffffffff1688805461255890614672565b80601f016020809104026020016040519081016040528092919081815260200182805461258490614672565b80156125d15780601f106125a6576101008083540402835291602001916125d1565b820191906000526020600020905b8154815290600101906020018083116125b457829003601f168201915b505050505098508780546125e490614672565b80601f016020809104026020016040519081016040528092919081815260200182805461261090614672565b801561265d5780601f106126325761010080835404028352916020019161265d565b820191906000526020600020905b81548152906001019060200180831161264057829003601f168201915b5050505050975086805480602002602001604051908101604052809291908181526020016000905b828210156127315783829060005260206000200180546126a490614672565b80601f01602080910402602001604051908101604052809291908181526020018280546126d090614672565b801561271d5780601f106126f25761010080835404028352916020019161271d565b820191906000526020600020905b81548152906001019060200180831161270057829003601f168201915b505050505081526020019060010190612685565b5050505096509a509a509a509a509a509a509a509a509a509a50509193959799509193959799565b60015481565b600080600560008681526020019081526020016000206000858152602001908152602001600020549050600081036127a65760648361279e9190614164565b9150506127f7565b60006127b186611338565b9050600084836127c19190614130565b905082816127cf9190614164565b826064876127dd9190614164565b6127e79190614164565b6127f191906141d5565b93505050505b9392505050565b6009602052816000526040600020818154811061281a57600080fd5b90600052602060002001600091509150505481565b612837612e40565b600073ffffffffffffffffffffffffffffffffffffffff168173ffffffffffffffffffffffffffffffffffffffff16036128a95760006040517f1e4fbdf70000000000000000000000000000000000000000000000000000000081526004016128a091906134ca565b60405180910390fd5b6128b281612ec7565b50565b60006128bf612e02565b6000600460008781526020019081526020016000209050600060038111156128ea576128e9613871565b5b8160080160009054906101000a900460ff16600381111561290e5761290d613871565b5b1461294e576040517f08c379a0000000000000000000000000000000000000000000000000000000008152600401612945906142be565b60405180910390fd5b80600401544210612994576040517f08c379a000000000000000000000000000000000000000000000000000000000815260040161298b906149f1565b60405180910390fd5b806003018054905085106129dd576040517f08c379a00000000000000000000000000000000000000000000000000000000081526004016129d490614396565b60405180910390fd5b60008411612a20576040517f08c379a0000000000000000000000000000000000000000000000000000000008152600401612a1790614a5d565b60405180910390fd5b600073ffffffffffffffffffffffffffffffffffffffff1681600a0160009054906101000a900473ffffffffffffffffffffffffffffffffffffffff1673ffffffffffffffffffffffffffffffffffffffff1603612abf57833414612aba576040517f08c379a0000000000000000000000000000000000000000000000000000000008152600401612ab190614ac9565b60405180910390fd5b612b65565b80600a0160009054906101000a900473ffffffffffffffffffffffffffffffffffffffff1673ffffffffffffffffffffffffffffffffffffffff166323b872dd3330876040518463ffffffff1660e01b8152600401612b2093929190613edd565b6020604051808303816000875af1158015612b3f573d6000803e3d6000fd5b505050506040513d601f19601f82011682018060405250810190612b639190613f40565b505b6000612b7287878761275f565b905083811015612bb7576040517f08c379a0000000000000000000000000000000000000000000000000000000008152600401612bae90614b35565b60405180910390fd5b60026000815480929190612bca906145fb565b9190505550600060076000600254815260200190815260200160002090506002548160000181905550338160010160006101000a81548173ffffffffffffffffffffffffffffffffffffffff021916908373ffffffffffffffffffffffffffffffffffffffff16021790555087816002018190555086816003018190555085816004018190555081816005018190555042816006018190555085600560008a815260200190815260200160002060008981526020019081526020016000206000828254612c979190614130565b9250508190555081600660008a815260200190815260200160002060008981526020019081526020016000206000828254612cd29190614130565b925050819055508583600b016000828254612ced9190614130565b92505081905550600860003373ffffffffffffffffffffffffffffffffffffffff1673ffffffffffffffffffffffffffffffffffffffff16815260200190815260200160002060025490806001815401808255809150506001900390600052602060002001600090919091909150556009600089815260200190815260200160002060025490806001815401808255809150506001900390600052602060002001600090919091909150553373ffffffffffffffffffffffffffffffffffffffff16886002547ffdd8ed02332acacb3420e7345a9adadb30877075eade2bcde9fe778e8bb71e4289604051612de291906131b9565b60405180910390a46002549350505050612dfa612e25565b949350505050565b612e0a612f8b565b6002612e1c612e17612fcc565b612ff7565b60000181905550565b6001612e37612e32612fcc565b612ff7565b60000181905550565b612e48613001565b73ffffffffffffffffffffffffffffffffffffffff16612e66611d75565b73ffffffffffffffffffffffffffffffffffffffff1614612ec557612e89613001565b6040517f118cdaa7000000000000000000000000000000000000000000000000000000008152600401612ebc91906134ca565b60405180910390fd5b565b60008060009054906101000a900473ffffffffffffffffffffffffffffffffffffffff169050816000806101000a81548173ffffffffffffffffffffffffffffffffffffffff021916908373ffffffffffffffffffffffffffffffffffffffff1602179055508173ffffffffffffffffffffffffffffffffffffffff168173ffffffffffffffffffffffffffffffffffffffff167f8be0079c531659141344cd1fd0a4f28419497f9722a3daafe3b4186f6b6457e060405160405180910390a35050565b612f93613009565b15612fca576040517f3ee5aeb500000000000000000000000000000000000000000000000000000000815260040160405180910390fd5b565b60007f9b779b17422d0df92223018b32b4d1fa46e071723d6817e2486d003becc55f0060001b905090565b6000819050919050565b600033905090565b6000600261301d613018612fcc565b612ff7565b6000015414905090565b82805482825590600052602060002090810192821561306f579160200282015b8281111561306e57825182908161305e9190614845565b5091602001919060010190613047565b5b50905061307c9190613080565b5090565b5b808211156130a0576000818161309791906130a4565b50600101613081565b5090565b5080546130b090614672565b6000825580601f106130c257506130e1565b601f0160209004906000526020600020908101906130e091906130e4565b5b50565b5b808211156130fd5760008160009055506001016130e5565b5090565b6000604051905090565b600080fd5b600080fd5b600073ffffffffffffffffffffffffffffffffffffffff82169050919050565b600061314082613115565b9050919050565b61315081613135565b811461315b57600080fd5b50565b60008135905061316d81613147565b92915050565b6000602082840312156131895761318861310b565b5b60006131978482850161315e565b91505092915050565b6000819050919050565b6131b3816131a0565b82525050565b60006020820190506131ce60008301846131aa565b92915050565b6131dd816131a0565b81146131e857600080fd5b50565b6000813590506131fa816131d4565b92915050565b6000602082840312156132165761321561310b565b5b6000613224848285016131eb565b91505092915050565b61323681613135565b82525050565b60008115159050919050565b6132518161323c565b82525050565b60006101008201905061326d600083018b6131aa565b61327a602083018a61322d565b61328760408301896131aa565b61329460608301886131aa565b6132a160808301876131aa565b6132ae60a08301866131aa565b6132bb60c08301856131aa565b6132c860e0830184613248565b9998505050505050505050565b600081519050919050565b600082825260208201905092915050565b6000819050602082019050919050565b61330a816131a0565b82525050565b600061331c8383613301565b60208301905092915050565b6000602082019050919050565b6000613340826132d5565b61334a81856132e0565b9350613355836132f1565b8060005b8381101561338657815161336d8882613310565b975061337883613328565b925050600181019050613359565b5085935050505092915050565b600060208201905081810360008301526133ad8184613335565b905092915050565b60006020820190506133ca6000830184613248565b92915050565b600080604083850312156133e7576133e661310b565b5b60006133f5858286016131eb565b9250506020613406858286016131eb565b9150509250929050565b6000819050919050565b600061343561343061342b84613115565b613410565b613115565b9050919050565b60006134478261341a565b9050919050565b60006134598261343c565b9050919050565b6134698161344e565b82525050565b60006020820190506134846000830184613460565b92915050565b600080604083850312156134a1576134a061310b565b5b60006134af8582860161315e565b92505060206134c0858286016131eb565b9150509250929050565b60006020820190506134df600083018461322d565b92915050565b600080fd5b600080fd5b6000601f19601f8301169050919050565b7f4e487b7100000000000000000000000000000000000000000000000000000000600052604160045260246000fd5b613538826134ef565b810181811067ffffffffffffffff8211171561355757613556613500565b5b80604052505050565b600061356a613101565b9050613576828261352f565b919050565b600067ffffffffffffffff82111561359657613595613500565b5b61359f826134ef565b9050602081019050919050565b82818337600083830152505050565b60006135ce6135c98461357b565b613560565b9050828152602081018484840111156135ea576135e96134ea565b5b6135f58482856135ac565b509392505050565b600082601f830112613612576136116134e5565b5b81356136228482602086016135bb565b91505092915050565b600067ffffffffffffffff82111561364657613645613500565b5b602082029050602081019050919050565b600080fd5b600061366f61366a8461362b565b613560565b9050808382526020820190506020840283018581111561369257613691613657565b5b835b818110156136d957803567ffffffffffffffff8111156136b7576136b66134e5565b5b8086016136c489826135fd565b85526020850194505050602081019050613694565b5050509392505050565b600082601f8301126136f8576136f76134e5565b5b813561370884826020860161365c565b91505092915050565b60008060008060008060c0878903121561372e5761372d61310b565b5b600087013567ffffffffffffffff81111561374c5761374b613110565b5b61375889828a016135fd565b965050602087013567ffffffffffffffff81111561377957613778613110565b5b61378589828a016135fd565b955050604087013567ffffffffffffffff8111156137a6576137a5613110565b5b6137b289828a016136e3565b94505060606137c389828a016131eb565b93505060806137d489828a0161315e565b92505060a06137e589828a0161315e565b9150509295509295509295565b600081519050919050565b600082825260208201905092915050565b60005b8381101561382c578082015181840152602081019050613811565b60008484015250505050565b6000613843826137f2565b61384d81856137fd565b935061385d81856020860161380e565b613866816134ef565b840191505092915050565b7f4e487b7100000000000000000000000000000000000000000000000000000000600052602160045260246000fd5b600481106138b1576138b0613871565b5b50565b60008190506138c2826138a0565b919050565b60006138d2826138b4565b9050919050565b6138e2816138c7565b82525050565b6000610160820190506138fe600083018e6131aa565b8181036020830152613910818d613838565b90508181036040830152613924818c613838565b9050613933606083018b6131aa565b613940608083018a61322d565b61394d60a083018961322d565b61395a60c08301886131aa565b61396760e08301876138d9565b6139756101008301866131aa565b61398361012083018561322d565b6139916101408301846131aa565b9c9b505050505050505050505050565b600081519050919050565b600082825260208201905092915050565b6000819050602082019050919050565b600082825260208201905092915050565b60006139e9826137f2565b6139f381856139cd565b9350613a0381856020860161380e565b613a0c816134ef565b840191505092915050565b6000613a2383836139de565b905092915050565b6000602082019050919050565b6000613a43826139a1565b613a4d81856139ac565b935083602082028501613a5f856139bd565b8060005b85811015613a9b5784840389528151613a7c8582613a17565b9450613a8783613a2b565b925060208a01995050600181019050613a63565b50829750879550505050505092915050565b600061014082019050613ac3600083018d6131aa565b8181036020830152613ad5818c613838565b90508181036040830152613ae9818b613838565b90508181036060830152613afd818a613a38565b9050613b0c60808301896131aa565b613b1960a083018861322d565b613b2660c083018761322d565b613b3360e08301866138d9565b613b416101008301856131aa565b613b4f61012083018461322d565b9b9a5050505050505050505050565b600080600060608486031215613b7757613b7661310b565b5b6000613b85868287016131eb565b9350506020613b96868287016131eb565b9250506040613ba7868287016131eb565b9150509250925092565b60008060008060808587031215613bcb57613bca61310b565b5b6000613bd9878288016131eb565b9450506020613bea878288016131eb565b9350506040613bfb878288016131eb565b9250506060613c0c878288016131eb565b91505092959194509250565b7f506f736974696f6e206e6f7420666f722073616c650000000000000000000000600082015250565b6000613c4e6015836137fd565b9150613c5982613c18565b602082019050919050565b60006020820190508181036000830152613c7d81613c41565b9050919050565b7f496e73756666696369656e742045544800000000000000000000000000000000600082015250565b6000613cba6010836137fd565b9150613cc582613c84565b602082019050919050565b60006020820190508181036000830152613ce981613cad565b9050919050565b600081905092915050565b50565b6000613d0b600083613cf0565b9150613d1682613cfb565b600082019050919050565b6000613d2c82613cfe565b9150819050919050565b7f455448207472616e73666572206661696c656400000000000000000000000000600082015250565b6000613d6c6013836137fd565b9150613d7782613d36565b602082019050919050565b60006020820190508181036000830152613d9b81613d5f565b9050919050565b7f4e487b7100000000000000000000000000000000000000000000000000000000600052601160045260246000fd5b6000613ddc826131a0565b9150613de7836131a0565b9250828203905081811115613dff57613dfe613da2565b5b92915050565b7f526566756e64206661696c656400000000000000000000000000000000000000600082015250565b6000613e3b600d836137fd565b9150613e4682613e05565b602082019050919050565b60006020820190508181036000830152613e6a81613e2e565b9050919050565b7f446f206e6f742073656e642045544820666f72204552433230206d61726b6574600082015250565b6000613ea76020836137fd565b9150613eb282613e71565b602082019050919050565b60006020820190508181036000830152613ed681613e9a565b9050919050565b6000606082019050613ef2600083018661322d565b613eff602083018561322d565b613f0c60408301846131aa565b949350505050565b613f1d8161323c565b8114613f2857600080fd5b50565b600081519050613f3a81613f14565b92915050565b600060208284031215613f5657613f5561310b565b5b6000613f6484828501613f2b565b91505092915050565b7f4e6f206665657320746f20776974686472617700000000000000000000000000600082015250565b6000613fa36013836137fd565b9150613fae82613f6d565b602082019050919050565b60006020820190508181036000830152613fd281613f96565b9050919050565b6000604082019050613fee600083018561322d565b613ffb60208301846131aa565b9392505050565b7f4e6f7420796f7572206265740000000000000000000000000000000000000000600082015250565b6000614038600c836137fd565b915061404382614002565b602082019050919050565b600060208201905081810360008301526140678161402b565b9050919050565b7f4e6f74206c697374656400000000000000000000000000000000000000000000600082015250565b60006140a4600a836137fd565b91506140af8261406e565b602082019050919050565b600060208201905081810360008301526140d381614097565b9050919050565b6000819050919050565b60006140ff6140fa6140f5846140da565b613410565b6131a0565b9050919050565b61410f816140e4565b82525050565b600060208201905061412a6000830184614106565b92915050565b600061413b826131a0565b9150614146836131a0565b925082820190508082111561415e5761415d613da2565b5b92915050565b600061416f826131a0565b915061417a836131a0565b9250828202614188816131a0565b9150828204841483151761419f5761419e613da2565b5b5092915050565b7f4e487b7100000000000000000000000000000000000000000000000000000000600052601260045260246000fd5b60006141e0826131a0565b91506141eb836131a0565b9250826141fb576141fa6141a6565b5b828204905092915050565b7f4f6e6c792061726269747261746f720000000000000000000000000000000000600082015250565b600061423c600f836137fd565b915061424782614206565b602082019050919050565b6000602082019050818103600083015261426b8161422f565b9050919050565b7f4d61726b6574206e6f74206f70656e0000000000000000000000000000000000600082015250565b60006142a8600f836137fd565b91506142b382614272565b602082019050919050565b600060208201905081810360008301526142d78161429b565b9050919050565b7f546f6f206561726c790000000000000000000000000000000000000000000000600082015250565b60006143146009836137fd565b915061431f826142de565b602082019050919050565b6000602082019050818103600083015261434381614307565b9050919050565b7f496e76616c6964206f7574636f6d650000000000000000000000000000000000600082015250565b6000614380600f836137fd565b915061438b8261434a565b602082019050919050565b600060208201905081810360008301526143af81614373565b9050919050565b7f416c726561647920636c61696d65640000000000000000000000000000000000600082015250565b60006143ec600f836137fd565b91506143f7826143b6565b602082019050919050565b6000602082019050818103600083015261441b816143df565b9050919050565b7f4d61726b6574206e6f74207265736f6c76656400000000000000000000000000600082015250565b60006144586013836137fd565b915061446382614422565b602082019050919050565b600060208201905081810360008301526144878161444b565b9050919050565b60006040820190506144a3600083018561322d565b6144b06020830184613248565b9392505050565b7f4e656564206174206c656173742032206f7574636f6d65730000000000000000600082015250565b60006144ed6018836137fd565b91506144f8826144b7565b602082019050919050565b6000602082019050818103600083015261451c816144e0565b9050919050565b7f5265736f6c7574696f6e206d75737420626520696e2066757475726500000000600082015250565b6000614559601c836137fd565b915061456482614523565b602082019050919050565b600060208201905081810360008301526145888161454c565b9050919050565b7f496e76616c69642061726269747261746f720000000000000000000000000000600082015250565b60006145c56012836137fd565b91506145d08261458f565b602082019050919050565b600060208201905081810360008301526145f4816145b8565b9050919050565b6000614606826131a0565b91507fffffffffffffffffffffffffffffffffffffffffffffffffffffffffffffffff820361463857614637613da2565b5b600182019050919050565b7f4e487b7100000000000000000000000000000000000000000000000000000000600052602260045260246000fd5b6000600282049050600182168061468a57607f821691505b60208210810361469d5761469c614643565b5b50919050565b60008190508160005260206000209050919050565b60006020601f8301049050919050565b600082821b905092915050565b6000600883026147057fffffffffffffffffffffffffffffffffffffffffffffffffffffffffffffffff826146c8565b61470f86836146c8565b95508019841693508086168417925050509392505050565b600061474261473d614738846131a0565b613410565b6131a0565b9050919050565b6000819050919050565b61475c83614727565b61477061476882614749565b8484546146d5565b825550505050565b600090565b614785614778565b614790818484614753565b505050565b5b818110156147b4576147a960008261477d565b600181019050614796565b5050565b601f8211156147f9576147ca816146a3565b6147d3846146b8565b810160208510156147e2578190505b6147f66147ee856146b8565b830182614795565b50505b505050565b600082821c905092915050565b600061481c600019846008026147fe565b1980831691505092915050565b6000614835838361480b565b9150826002028217905092915050565b61484e826137f2565b67ffffffffffffffff81111561486757614866613500565b5b6148718254614672565b61487c8282856147b8565b600060209050601f8311600181146148af576000841561489d578287015190505b6148a78582614829565b86555061490f565b601f1984166148bd866146a3565b60005b828110156148e5578489015182556001820191506020850194506020810190506148c0565b8683101561490257848901516148fe601f89168261480b565b8355505b6001600288020188555050505b505050505050565b600060208201905081810360008301526149318184613838565b905092915050565b7f42657420616c726561647920636c61696d656400000000000000000000000000600082015250565b600061496f6013836137fd565b915061497a82614939565b602082019050919050565b6000602082019050818103600083015261499e81614962565b9050919050565b7f4d61726b657420636c6f73656400000000000000000000000000000000000000600082015250565b60006149db600d836137fd565b91506149e6826149a5565b602082019050919050565b60006020820190508181036000830152614a0a816149ce565b9050919050565b7f416d6f756e74206d757374206265203e20300000000000000000000000000000600082015250565b6000614a476012836137fd565b9150614a5282614a11565b602082019050919050565b60006020820190508181036000830152614a7681614a3a565b9050919050565b7f496e636f72726563742045544820616d6f756e74000000000000000000000000600082015250565b6000614ab36014836137fd565b9150614abe82614a7d565b602082019050919050565b60006020820190508181036000830152614ae281614aa6565b9050919050565b7f536c697070616765206578636565646564000000000000000000000000000000600082015250565b6000614b1f6011836137fd565b9150614b2a82614ae9565b602082019050919050565b60006020820190508181036000830152614b4e81614b12565b905091905056fea26469706673582212200cc0faae83debaa9f20aeb69cc177570ff8fb0965a5581c78c614dfd7aa5d03e64736f6c634300081e0033",
  "linkReferences": {},
  "deployedLinkReferences": {}
}